:100000000C9434000C9451000C9451000C94510049
:100010000C9451000C9451000C9451000C9451001C
:100020000C9451000C9451000C9451000C948901D3
:100030000C9451000C9451000C9451000C945100FC
:100040000C9451000C9451000C9451000C945100EC
:100050000C9451000C9451000C9451000C945100DC
:100060000C9451000C94510011241FBECFEFD8E026
:10007000DEBFCDBF11E0A0E0B1E0ECE4FBE002C0E8
:1000800005900D92A835B107D9F721E0A8E5B1E0B8
:1000900001C01D92A536B207E1F70E9410020C9430
:1000A000A4050C9400005A9A00005A980895CF9322
:1000B000C82F662311F0589A01C0589859983D9A54
:1000C0003C9A3B9A3A9A4298439844984598CC2354
:1000D0000CF4429AC6FD439AC5FD449AC4FD459A64
:1000E0000E9453004298439844984598C3FD429A11
:1000F000C2FD439AC1FD449AC0FD459A0E94530037
:10010000459A449A439A429ACF910895882311F0D0
:10011000589A01C05898599A3D983C983B983A98FB
:100120005A9A0000359B02C080E101C080E03499FA
:10013000806233998064329980685A9800005A9A94
:1001400000003599816034998260339984603299D6
:1001500088605A98089580E00E9486008823DCF326
:1001600000C000C080E00E9486000895CF93C82F91
:100170000E94AB0060E08C2F0E945700CF91089541
:1001800081E00E94B6000895CF93C82F0E94AB0073
:10019000CA3049F4803410F080E001C080E4805817
:1001A0000E94B60004C061E08C2F0E945700CF91DE
:1001B0000895CF93C82F509A519A529A3D9A3C9ADB
:1001C0003B9A3A9A8FE99FE00197F1F700C000004F
:1001D000449A459A0E94530081EE94E00197F1F70A
:1001E00000C000000E94530095E19A95F1F70000CD
:1001F0000E94530085E18A95F1F7000045980E941E
:10020000530095E19A95F1F7000088E20E94B6004C
:1002100088E00E94B6000E94C00086E00E94B600FE
:100220008C2F0E94B600CF9108950E94C40080E0F8
:1002300090E0089583B1809581700895AF92BF9248
:10024000CF92DF92EF92FF920F931F93CF93DF93A2
:10025000D0E0C0E000E010E0FF24F3940F2EF3E0C4
:10026000CF2EF02D6894BB24B1F86894AA24A2F88C
:100270006894DD24D7F80F2EF6E9EF2EF02D03C099
:10028000CC2D01C0CA2DC23089F028F4CC2341F016
:10029000C130C9F0F8CFC33039F1C430F1F0F3CF39
:1002A0000E941A01882379F3CB2DEDCF2FE986E840
:1002B00091E0215080409040E1F700C00000CF2D38
:1002C0000D2D1E2DE0CF0E941A018823C9F20115C1
:1002D0001105C1F201501109D6CF0E941A018111F6
:1002E000D2CFDF2DCC2DCFCF2FE986E891E0215062
:1002F00080409040E1F700C000008D2FDF91CF914A
:100300001F910F91FF90EF90DF90CF90BF90AF9033
:1003100008951F920F920FB60F9211242F933F93BF
:100320004F935F936F937F938F939F93AF93BF93FD
:10033000EF93FF93E8E8F0E080819181805B9C433C
:100340009183808380915C018F5F80935C018091B9
:100350005C01823081F510925C0180915B018F5FBE
:1003600080935B0180915B018A3009F415BC809118
:100370005B01843601F580915A018F5F80935A01A9
:1003800085B5836085BD10925B0180915A018C33E5
:1003900091F4809159018F5F8093590110925A0115
:1003A000809159018C3339F4809158018F5F80938B
:1003B00058011092590130915B0120915A0190919E
:1003C0005901809158011F923F931F922F931F92C2
:1003D0009F931F928F9380915E018F9380915D0117
:1003E0008F938EE091E09F938F930E94D9028DB7F7
:1003F0009EB70C960FB6F8949EBF0FBE8DBFFF91AF
:10040000EF91BF91AF919F918F917F916F915F918C
:100410004F913F912F910F900FBE0F901F90189505
:10042000289A209881E080938100569A84B582644E
:1004300084BD8BE987BD86E291E090935E01809355
:100440005D0180E091E090936201809361018CE016
:100450000E94D9000E94C00010E00F2EF0E5CF2EC0
:10046000F3ECDF2EF02DCFE6D0E06894AA24A1F8BB
:100470000F2EF4E88F2E912CF02D0F2EFEE26F2E12
:10048000F1E07F2EF02D0F2EF6E2EF2EF1E0FF2EA1
:10049000F02D0F2EFEE04F2EF1E05F2EF02DBB244D
:1004A000B3940F2EFDE32F2EF1E03F2EF02D03C06D
:1004B0001B2D01C01B2D1130D1F120F0123009F499
:1004C0004AC0F9CFF894188210925B0110925A0139
:1004D0001092590110925801F0925E01E0925D0174
:1004E00030915B0120915A019091590180915801FE
:1004F0001F923F931F922F931F929F931F928F9350
:10050000FF92EF925F924F920E94D9020E941E01C9
:100510002DB73EB7245F3F4F0FB6F8943EBF0FBED6
:100520002DBF882329F20E941E018111C3CFA8E8A4
:10053000B0E01196DC92CE92A8827894F4011182F8
:10054000108270925E0160925D010E941E01811115
:10055000B2CF1A2DB0CFF894188226E331E0309351
:100560005E0120935D0130915B0120915A019091D1
:100570005901809158011F923F931F922F931F9210
:100580009F931F928F93A6E3B1E0BF93AF933F92E7
:100590002F920E94D9020E941E01182F1B252DB7F1
:1005A0003EB7245F3F4F0FB6F8943EBF0FBE2DBF3E
:1005B00082CFA0E0B0E0EFEDF2E00C947D05AE015B
:1005C0004B5F5F4FFA0161917191AF0180916101C1
:1005D000909162010E94EF02E2E00C949905ACE078
:1005E000B0E0E5EFF2E00C946D057C016B018A014F
:1005F000FC0117821682838181FFBDC1CE01019665
:100600004C01F7019381F60193FD859193FF819150
:100610006F01882309F4ABC1853239F493FD8591CC
:1006200093FF81916F01853229F4B70190E00E9418
:10063000D704E7CF512C312C20E02032A0F48B32AC
:1006400069F030F4803259F0833269F420612CC0B3
:100650008D3239F0803339F4216026C02260246065
:1006600023C0286021C027FD27C030ED380F3A3065
:1006700078F426FF06C0FAE05F9E300D1124532E59
:1006800013C08AE0389E300D1124332E20620CC036
:100690008E3221F426FD6BC1206406C08C3611F425
:1006A000206802C0883641F4F60193FD859193FFDE
:1006B00081916F018111C1CF982F9F7D9554933007
:1006C00028F40C5F1F4FFFE3F9830DC0833631F030
:1006D000833771F0833509F05BC022C0F801808157
:1006E00089830E5F1F4F44244394512C540115C03D
:1006F0003801F2E06F0E711CF801A080B18026FF76
:1007000003C0652D70E002C06FEF7FEFC5012C873D
:100710000E94CC042C0183012C852F77222E17C038
:100720003801F2E06F0E711CF801A080B18026FF45
:1007300003C0652D70E002C06FEF7FEFC5012C870D
:100740000E94C1042C012C852068222E830123FCE9
:100750001BC0832D90E048165906B0F4B70180E223
:1007600090E00E94D7043A94F4CFF50127FC8591DC
:1007700027FE81915F01B70190E00E94D7043110FC
:100780003A94F1E04F1A51084114510471F7E5C051
:10079000843611F0893639F5F80127FF07C06081EA
:1007A0007181828193810C5F1F4F08C060817181CC
:1007B000072E000C880B990B0E5F1F4F2F76722EA1
:1007C00097FF09C090958095709561957F4F8F4FE9
:1007D0009F4F2068722E2AE030E0A4010E940F058E
:1007E000A82EA81844C0853729F42F7EB22E2AE0FF
:1007F00030E025C0F22FF97FBF2E8F36C1F018F4FC
:10080000883579F0B4C0803719F0883721F0AFC04F
:100810002F2F2061B22EB4FE0DC08B2D8460B82E18
:1008200009C024FF0AC09F2F9660B92E06C028E099
:1008300030E005C020E130E002C020E132E0F80104
:10084000B7FE07C060817181828193810C5F1F4F69
:1008500006C06081718180E090E00E5F1F4FA401AF
:100860000E940F05A82EA818FB2DFF777F2E76FE7D
:100870000BC0372D3E7FA51450F474FE0AC072FCE5
:1008800008C0372D3E7E05C0BA2C372D03C0BA2CC8
:1008900001C0B52C34FF0DC0FE01EA0DF11D8081B1
:1008A000803311F4397E09C032FF06C0B394B3948B
:1008B00004C0832F867809F0B39433FD13C030FF52
:1008C00006C05A2CB31418F4530C5B18B32CB31491
:1008D00068F4B70180E290E03C870E94D704B394AB
:1008E0003C85F5CFB31410F43B1801C0312C34FF14
:1008F00012C0B70180E390E03C870E94D7043C859A
:1009000032FF17C031FD03C088E790E002C088E5E0
:1009100090E0B7010CC0832F867859F031FF02C0F8
:100920008BE201C080E237FD8DE2B70190E00E94CA
:10093000D704A51438F4B70180E390E00E94D704EF
:100940005A94F7CFAA94F401EA0DF11D8081B70102
:1009500090E00E94D704A110F5CF332009F451CEC6
:10096000B70180E290E00E94D7043A94F6CFF701F5
:100970008681978102C08FEF9FEF2C96E2E10C9465
:100980008905FC010590615070400110D8F78095F1
:1009900090958E0F9F1F0895FC016150704001904B
:1009A0000110D8F7809590958E0F9F1F08950F9393
:1009B0001F93CF93DF93FB01238121FD03C08FEFB2
:1009C0009FEF28C022FF16C04681578124813581C0
:1009D0004217530744F4A081B1819D012F5F3F4F1F
:1009E000318320838C93268137812F5F3F4F37835C
:1009F000268310C0EB01092F182F0084F185E02D0C
:100A00000995892BE1F68E819F8101969F838E83C4
:100A1000812F902FDF91CF911F910F910895FA01AF
:100A2000AA27283051F1203181F1E8946F936E7F2D
:100A30006E5F7F4F8F4F9F4FAF4FB1E03ED0B4E01E
:100A40003CD0670F781F891F9A1FA11D680F791F5F
:100A50008A1F911DA11D6A0F711D811D911DA11D70
:100A600020D009F468943F912AE0269F1124301980
:100A7000305D3193DEF6CF010895462F4770405D1B
:100A80004193B3E00FD0C9F7F6CF462F4F70405DCA
:100A90004A3318F0495D31FD4052419302D0A9F725
:100AA000EACFB4E0A6959795879577956795BA951F
:100AB000C9F700976105710508959B01AC010A2EE5
:100AC00006945795479537952795BA95C9F7620FBC
:100AD000731F841F951FA01D08952F923F924F9260
:100AE0005F926F927F928F929F92AF92BF92CF92BE
:100AF000DF92EF92FF920F931F93CF93DF93CDB7C7
:100B0000DEB7CA1BDB0B0FB6F894DEBF0FBECDBF3E
:100B100009942A88398848885F846E847D848C840F
:100B20009B84AA84B984C884DF80EE80FD800C8118
:100B30001B81AA81B981CE0FD11D0FB6F894DEBFFB
:0C0B40000FBECDBFED010895F894FFCF6B
:100B4C0000000002000000001501000000002573E9
:100B5C000A253032643A253032643A253032643A10
:100B6C00253032640A0053746F70706564005275DE
:100B7C006E6E696E67005061757365640025732035
:100B8C0020200A253032643A253032643A2530323E
:080B9C00643A253032640A00BE
:00000001FF
